{
  "_format": "hh-sol-artifact-1",
  "contractName": "TaskContract",
  "sourceName": "contracts/TaskContract.sol",
  "abi": [
    {
      "anonymous": false,
      "inputs": [
        {
          "indexed": false,
          "internalType": "uint256",
          "name": "id",
          "type": "uint256"
        },
        {
          "indexed": false,
          "internalType": "address",
          "name": "owner",
          "type": "address"
        },
        {
          "indexed": false,
          "internalType": "string",
          "name": "text",
          "type": "string"
        },
        {
          "indexed": false,
          "internalType": "enum TaskContract.Category",
          "name": "category",
          "type": "uint8"
        },
        {
          "indexed": false,
          "internalType": "uint256",
          "name": "expiresAtSeconds",
          "type": "uint256"
        },
        {
          "indexed": false,
          "internalType": "enum TaskContract.State",
          "name": "state",
          "type": "uint8"
        }
      ],
      "name": "AddTask",
      "type": "event"
    },
    {
      "anonymous": false,
      "inputs": [
        {
          "indexed": false,
          "internalType": "uint256",
          "name": "id",
          "type": "uint256"
        },
        {
          "indexed": false,
          "internalType": "address",
          "name": "owner",
          "type": "address"
        },
        {
          "indexed": false,
          "internalType": "string",
          "name": "text",
          "type": "string"
        },
        {
          "indexed": false,
          "internalType": "enum TaskContract.Category",
          "name": "category",
          "type": "uint8"
        },
        {
          "indexed": false,
          "internalType": "uint256",
          "name": "expiresAtSeconds",
          "type": "uint256"
        },
        {
          "indexed": false,
          "internalType": "enum TaskContract.State",
          "name": "state",
          "type": "uint8"
        }
      ],
      "name": "CompleteTask",
      "type": "event"
    },
    {
      "anonymous": false,
      "inputs": [
        {
          "indexed": false,
          "internalType": "uint256",
          "name": "id",
          "type": "uint256"
        },
        {
          "indexed": false,
          "internalType": "address",
          "name": "owner",
          "type": "address"
        },
        {
          "indexed": false,
          "internalType": "string",
          "name": "text",
          "type": "string"
        },
        {
          "indexed": false,
          "internalType": "enum TaskContract.Category",
          "name": "category",
          "type": "uint8"
        },
        {
          "indexed": false,
          "internalType": "uint256",
          "name": "expiresAtSeconds",
          "type": "uint256"
        },
        {
          "indexed": false,
          "internalType": "enum TaskContract.State",
          "name": "state",
          "type": "uint8"
        }
      ],
      "name": "DeleteTask",
      "type": "event"
    },
    {
      "anonymous": false,
      "inputs": [
        {
          "indexed": false,
          "internalType": "uint256",
          "name": "id",
          "type": "uint256"
        },
        {
          "indexed": false,
          "internalType": "address",
          "name": "owner",
          "type": "address"
        },
        {
          "indexed": false,
          "internalType": "string",
          "name": "text",
          "type": "string"
        },
        {
          "indexed": false,
          "internalType": "enum TaskContract.Category",
          "name": "category",
          "type": "uint8"
        },
        {
          "indexed": false,
          "internalType": "uint256",
          "name": "expiresAtSeconds",
          "type": "uint256"
        },
        {
          "indexed": false,
          "internalType": "enum TaskContract.State",
          "name": "state",
          "type": "uint8"
        }
      ],
      "name": "UpdateTask",
      "type": "event"
    },
    {
      "inputs": [
        {
          "internalType": "string",
          "name": "text",
          "type": "string"
        },
        {
          "internalType": "enum TaskContract.Category",
          "name": "category",
          "type": "uint8"
        },
        {
          "internalType": "uint256",
          "name": "expiresAtSeconds",
          "type": "uint256"
        }
      ],
      "name": "addTask",
      "outputs": [],
      "stateMutability": "nonpayable",
      "type": "function"
    },
    {
      "inputs": [
        {
          "internalType": "uint256",
          "name": "taskID",
          "type": "uint256"
        }
      ],
      "name": "completeTask",
      "outputs": [],
      "stateMutability": "nonpayable",
      "type": "function"
    },
    {
      "inputs": [
        {
          "internalType": "uint256",
          "name": "taskID",
          "type": "uint256"
        }
      ],
      "name": "deleteTask",
      "outputs": [],
      "stateMutability": "nonpayable",
      "type": "function"
    },
    {
      "inputs": [],
      "name": "getTasks",
      "outputs": [
        {
          "components": [
            {
              "internalType": "address",
              "name": "owner",
              "type": "address"
            },
            {
              "internalType": "string",
              "name": "text",
              "type": "string"
            },
            {
              "internalType": "enum TaskContract.Category",
              "name": "category",
              "type": "uint8"
            },
            {
              "internalType": "uint256",
              "name": "expiresAtSeconds",
              "type": "uint256"
            },
            {
              "internalType": "enum TaskContract.State",
              "name": "state",
              "type": "uint8"
            },
            {
              "internalType": "uint256",
              "name": "id",
              "type": "uint256"
            }
          ],
          "internalType": "struct TaskContract.Task[]",
          "name": "",
          "type": "tuple[]"
        }
      ],
      "stateMutability": "view",
      "type": "function"
    },
    {
      "inputs": [
        {
          "internalType": "uint256",
          "name": "taskID",
          "type": "uint256"
        },
        {
          "internalType": "string",
          "name": "text",
          "type": "string"
        }
      ],
      "name": "updateTask",
      "outputs": [],
      "stateMutability": "nonpayable",
      "type": "function"
    }
  ],
  "bytecode": "0x608060405234801561001057600080fd5b50611a0b806100206000396000f3fe608060405234801561001057600080fd5b50600436106100575760003560e01c806304a87e381461005c5780633e625c401461007a578063560f31921461009657806386533f6c146100b2578063e1e29558146100ce575b600080fd5b6100646100ea565b6040516100719190611140565b60405180910390f35b610094600480360381019061008f91906112fc565b6102bb565b005b6100b060048036038101906100ab919061136b565b6104d3565b005b6100cc60048036038101906100c79190611398565b6107c8565b005b6100e860048036038101906100e3919061136b565b610aaa565b005b60606000805480602002602001604051908101604052809291908181526020016000905b828210156102b257838290600052602060002090600602016040518060c00160405290816000820160009054906101000a900473ffffffffffffffffffffffffffffffffffffffff1673ffffffffffffffffffffffffffffffffffffffff1673ffffffffffffffffffffffffffffffffffffffff16815260200160018201805461019790611423565b80601f01602080910402602001604051908101604052809291908181526020018280546101c390611423565b80156102105780601f106101e557610100808354040283529160200191610210565b820191906000526020600020905b8154815290600101906020018083116101f357829003601f168201915b505050505081526020016002820160009054906101000a900460ff16600381111561023e5761023d610f49565b5b60038111156102505761024f610f49565b5b8152602001600382015481526020016004820160009054906101000a900460ff16600281111561028357610282610f49565b5b600281111561029557610294610f49565b5b81526020016005820154815250508152602001906001019061010e565b50505050905090565b4281116102fd576040517f08c379a00000000000000000000000000000000000000000000000000000000081526004016102f4906114b2565b60405180910390fd5b60006040518060c001604052803373ffffffffffffffffffffffffffffffffffffffff16815260200185815260200184600381111561033f5761033e610f49565b5b81526020018381526020016000600281111561035e5761035d610f49565b5b81526020016000805490508152509050600081908060018154018082558091505060019003906000526020600020906006020160009091909190915060008201518160000160006101000a81548173ffffffffffffffffffffffffffffffffffffffff021916908373ffffffffffffffffffffffffffffffffffffffff16021790555060208201518160010190805190602001906103fd929190610da0565b5060408201518160020160006101000a81548160ff0219169083600381111561042957610428610f49565b5b02179055506060820151816003015560808201518160040160006101000a81548160ff0219169083600281111561046357610462610f49565b5b021790555060a0820151816005015550507f42ac4d681b307a9613c8ae55fe50f36d6b71fd8a4f8b738bac2ab0f7c23bd3768160a00151826000015183602001518460400151856060015186608001516040516104c596959493929190611547565b60405180910390a150505050565b6002808111156104e6576104e5610f49565b5b600082815481106104fa576104f96115af565b5b906000526020600020906006020160040160009054906101000a900460ff16600281111561052b5761052a610f49565b5b141561056c576040517f08c379a00000000000000000000000000000000000000000000000000000000081526004016105639061162a565b60405180910390fd5b600081815481106105805761057f6115af565b5b906000526020600020906006020160000160009054906101000a900473ffffffffffffffffffffffffffffffffffffffff1673ffffffffffffffffffffffffffffffffffffffff163373ffffffffffffffffffffffffffffffffffffffff161461061f576040517f08c379a0000000000000000000000000000000000000000000000000000000008152600401610616906116bc565b60405180910390fd5b600260008281548110610635576106346115af565b5b906000526020600020906006020160040160006101000a81548160ff0219169083600281111561066857610667610f49565b5b02179055507ff9261949206c0fa07a9b9c6113087a5bb6023eb9b7f2ed0754de089a1b110828600082815481106106a2576106a16115af565b5b906000526020600020906006020160050154600083815481106106c8576106c76115af565b5b906000526020600020906006020160000160009054906101000a900473ffffffffffffffffffffffffffffffffffffffff166000848154811061070e5761070d6115af565b5b906000526020600020906006020160010160008581548110610733576107326115af565b5b906000526020600020906006020160020160009054906101000a900460ff1660008681548110610766576107656115af565b5b9060005260206000209060060201600301546000878154811061078c5761078b6115af565b5b906000526020600020906006020160040160009054906101000a900460ff166040516107bd96959493929190611771565b60405180910390a150565b600060028111156107dc576107db610f49565b5b600083815481106107f0576107ef6115af565b5b906000526020600020906006020160040160009054906101000a900460ff16600281111561082157610820610f49565b5b14610861576040517f08c379a000000000000000000000000000000000000000000000000000000000815260040161085890611825565b60405180910390fd5b60008281548110610875576108746115af565b5b906000526020600020906006020160000160009054906101000a900473ffffffffffffffffffffffffffffffffffffffff1673ffffffffffffffffffffffffffffffffffffffff163373ffffffffffffffffffffffffffffffffffffffff1614610914576040517f08c379a000000000000000000000000000000000000000000000000000000000815260040161090b906118b7565b60405180910390fd5b8060008381548110610929576109286115af565b5b9060005260206000209060060201600101908051906020019061094d929190610da0565b507f0e3b76ee661f4daf05a47f156d5884684f127090f45cedbf4c3f1d07b0cb808760008381548110610983576109826115af565b5b906000526020600020906006020160050154600084815481106109a9576109a86115af565b5b906000526020600020906006020160000160009054906101000a900473ffffffffffffffffffffffffffffffffffffffff16600085815481106109ef576109ee6115af565b5b906000526020600020906006020160010160008681548110610a1457610a136115af565b5b906000526020600020906006020160020160009054906101000a900460ff1660008781548110610a4757610a466115af565b5b90600052602060002090600602016003015460008881548110610a6d57610a6c6115af565b5b906000526020600020906006020160040160009054906101000a900460ff16604051610a9e96959493929190611771565b60405180910390a15050565b60016002811115610abe57610abd610f49565b5b60008281548110610ad257610ad16115af565b5b906000526020600020906006020160040160009054906101000a900460ff166002811115610b0357610b02610f49565b5b1415610b44576040517f08c379a0000000000000000000000000000000000000000000000000000000008152600401610b3b90611923565b60405180910390fd5b60008181548110610b5857610b576115af565b5b906000526020600020906006020160000160009054906101000a900473ffffffffffffffffffffffffffffffffffffffff1673ffffffffffffffffffffffffffffffffffffffff163373ffffffffffffffffffffffffffffffffffffffff1614610bf7576040517f08c379a0000000000000000000000000000000000000000000000000000000008152600401610bee906119b5565b60405180910390fd5b600160008281548110610c0d57610c0c6115af565b5b906000526020600020906006020160040160006101000a81548160ff02191690836002811115610c4057610c3f610f49565b5b02179055507f95223f44ffd9d2a905ad81a5446a1b5390cfd261948278b70b8c0264676bfba160008281548110610c7a57610c796115af565b5b90600052602060002090600602016005015460008381548110610ca057610c9f6115af565b5b906000526020600020906006020160000160009054906101000a900473ffffffffffffffffffffffffffffffffffffffff1660008481548110610ce657610ce56115af565b5b906000526020600020906006020160010160008581548110610d0b57610d0a6115af565b5b906000526020600020906006020160020160009054906101000a900460ff1660008681548110610d3e57610d3d6115af565b5b90600052602060002090600602016003015460008781548110610d6457610d636115af565b5b906000526020600020906006020160040160009054906101000a900460ff16604051610d9596959493929190611771565b60405180910390a150565b828054610dac90611423565b90600052602060002090601f016020900481019282610dce5760008555610e15565b82601f10610de757805160ff1916838001178555610e15565b82800160010185558215610e15579182015b82811115610e14578251825591602001919060010190610df9565b5b509050610e229190610e26565b5090565b5b80821115610e3f576000816000905550600101610e27565b5090565b600081519050919050565b600082825260208201905092915050565b6000819050602082019050919050565b600073ffffffffffffffffffffffffffffffffffffffff82169050919050565b6000610e9a82610e6f565b9050919050565b610eaa81610e8f565b82525050565b600081519050919050565b600082825260208201905092915050565b60005b83811015610eea578082015181840152602081019050610ecf565b83811115610ef9576000848401525b50505050565b6000601f19601f8301169050919050565b6000610f1b82610eb0565b610f258185610ebb565b9350610f35818560208601610ecc565b610f3e81610eff565b840191505092915050565b7f4e487b7100000000000000000000000000000000000000000000000000000000600052602160045260246000fd5b60048110610f8957610f88610f49565b5b50565b6000819050610f9a82610f78565b919050565b6000610faa82610f8c565b9050919050565b610fba81610f9f565b82525050565b6000819050919050565b610fd381610fc0565b82525050565b60038110610fea57610fe9610f49565b5b50565b6000819050610ffb82610fd9565b919050565b600061100b82610fed565b9050919050565b61101b81611000565b82525050565b600060c0830160008301516110396000860182610ea1565b50602083015184820360208601526110518282610f10565b91505060408301516110666040860182610fb1565b5060608301516110796060860182610fca565b50608083015161108c6080860182611012565b5060a083015161109f60a0860182610fca565b508091505092915050565b60006110b68383611021565b905092915050565b6000602082019050919050565b60006110d682610e43565b6110e08185610e4e565b9350836020820285016110f285610e5f565b8060005b8581101561112e578484038952815161110f85826110aa565b945061111a836110be565b925060208a019950506001810190506110f6565b50829750879550505050505092915050565b6000602082019050818103600083015261115a81846110cb565b905092915050565b6000604051905090565b600080fd5b600080fd5b600080fd5b600080fd5b7f4e487b7100000000000000000000000000000000000000000000000000000000600052604160045260246000fd5b6111b882610eff565b810181811067ffffffffffffffff821117156111d7576111d6611180565b5b80604052505050565b60006111ea611162565b90506111f682826111af565b919050565b600067ffffffffffffffff82111561121657611215611180565b5b61121f82610eff565b9050602081019050919050565b82818337600083830152505050565b600061124e611249846111fb565b6111e0565b90508281526020810184848401111561126a5761126961117b565b5b61127584828561122c565b509392505050565b600082601f83011261129257611291611176565b5b81356112a284826020860161123b565b91505092915050565b600481106112b857600080fd5b50565b6000813590506112ca816112ab565b92915050565b6112d981610fc0565b81146112e457600080fd5b50565b6000813590506112f6816112d0565b92915050565b6000806000606084860312156113155761131461116c565b5b600084013567ffffffffffffffff81111561133357611332611171565b5b61133f8682870161127d565b9350506020611350868287016112bb565b9250506040611361868287016112e7565b9150509250925092565b6000602082840312156113815761138061116c565b5b600061138f848285016112e7565b91505092915050565b600080604083850312156113af576113ae61116c565b5b60006113bd858286016112e7565b925050602083013567ffffffffffffffff8111156113de576113dd611171565b5b6113ea8582860161127d565b9150509250929050565b7f4e487b7100000000000000000000000000000000000000000000000000000000600052602260045260246000fd5b6000600282049050600182168061143b57607f821691505b6020821081141561144f5761144e6113f4565b5b50919050565b600082825260208201905092915050565b7f5461736b206d7573742065787069726520696e20746865206675747572652e00600082015250565b600061149c601f83611455565b91506114a782611466565b602082019050919050565b600060208201905081810360008301526114cb8161148f565b9050919050565b6114db81610fc0565b82525050565b6114ea81610e8f565b82525050565b60006114fb82610eb0565b6115058185611455565b9350611515818560208601610ecc565b61151e81610eff565b840191505092915050565b61153281610f9f565b82525050565b61154181611000565b82525050565b600060c08201905061155c60008301896114d2565b61156960208301886114e1565b818103604083015261157b81876114f0565b905061158a6060830186611529565b61159760808301856114d2565b6115a460a0830184611538565b979650505050505050565b7f4e487b7100000000000000000000000000000000000000000000000000000000600052603260045260246000fd5b7f5461736b2077617320616c72656164792064656c657465642e00000000000000600082015250565b6000611614601983611455565b915061161f826115de565b602082019050919050565b6000602082019050818103600083015261164381611607565b9050919050565b7f4f6e6c7920746865206f776e65722063616e2064656c6574652061207461736b60008201527f2e00000000000000000000000000000000000000000000000000000000000000602082015250565b60006116a6602183611455565b91506116b18261164a565b604082019050919050565b600060208201905081810360008301526116d581611699565b9050919050565b60008190508160005260206000209050919050565b600081546116fe81611423565b6117088186611455565b94506001821660008114611723576001811461173557611768565b60ff1983168652602086019350611768565b61173e856116dc565b60005b8381101561176057815481890152600182019150602081019050611741565b808801955050505b50505092915050565b600060c08201905061178660008301896114d2565b61179360208301886114e1565b81810360408301526117a581876116f1565b90506117b46060830186611529565b6117c160808301856114d2565b6117ce60a0830184611538565b979650505050505050565b7f5461736b206973206e6f74206163746976652e00000000000000000000000000600082015250565b600061180f601383611455565b915061181a826117d9565b602082019050919050565b6000602082019050818103600083015261183e81611802565b9050919050565b7f4f6e6c7920746865206f776e65722063616e207570646174652061207461736b60008201527f2e00000000000000000000000000000000000000000000000000000000000000602082015250565b60006118a1602183611455565b91506118ac82611845565b604082019050919050565b600060208201905081810360008301526118d081611894565b9050919050565b7f5461736b2077617320616c726561647920636f6d706c657465642e0000000000600082015250565b600061190d601b83611455565b9150611918826118d7565b602082019050919050565b6000602082019050818103600083015261193c81611900565b9050919050565b7f4f6e6c7920746865206f776e65722063616e20636f6d706c657465206120746160008201527f736b2e0000000000000000000000000000000000000000000000000000000000602082015250565b600061199f602383611455565b91506119aa82611943565b604082019050919050565b600060208201905081810360008301526119ce81611992565b905091905056fea26469706673582212208cc630b140c1fdb0978844751a0e954716f2466fd0d39189d7ae0f36bde8115c64736f6c63430008090033",
  "linkReferences": {},
  "deployedLinkReferences": {}
}